S01700004763634170706C69636174696F6E312E737265635B
S1130000F1C100000EC200000CC200000AC20000D0
S113001008C2000006C2000004C2000002C20000C0
S113002000C20000FEC10000FCC10000FAC10000D3
S1130030F8C10000F6C10000F4C10000F2C10000E4
S1130040F0C10000EEC10000ECC10000EAC10000F4
S1130050E8C10000E6C10000E4C10000E2C1000004
S11300607DC20000DEC10000DCC10000DAC1000076
S1130070D8C10000D6C10000D4C10000D2C1000024
S1130080D0C10000CEC10000CCC10000CAC1000034
S1130090C8C10000C6C10000C4C10000C2C1000044
S11300A0C0C10000BEC10000BCC10000BAC1000054
S11300B0B8C10000B6C10000B4C10000B2C1000064
S11300C0B0C10000AEC10000ACC10000AAC1000074
S11300D0A8C10000A6C10000A4C10000A2C1000084
S11300E0A0C10000000000000000000000005F004C
S11300F000000000000007000700000000147F1447
S11301007F14000000242A7F2A1200000023130811
S113011064620000003649552250000000000503C7
S113012000000000001C2241000000000041221CCD
S11301300000000000082A1C2A0800000008083EED
S11301400808000000A06000000000000008080883
S11301500808000000606000000000000020100893
S113016004020000003E5149453E00000000427F69
S11301704000000000625149494600000022414904
S113018049360000001814127F100000002745456E
S113019045390000003C4A4949300000000171091A
S11301A00503000000364949493600000006494964
S11301B0291E000000003636000000000000AC6C70
S11301C00000000000081422410000000014141470
S11301D01414000000412214080000000002015120
S11301E00906000000324979413E0000007E0909F9
S11301F0097E0000007F494949360000003E414124
S113020041220000007F4141221C0000007F494937
S113021049410000007F090909010000003E4141F5
S113022051720000007F0808087F000000417F41F0
S113023000000000002040413F010000007F08143E
S113024022410000007F404040400000007F020C3B
S1130250027F0000007F0408107F0000003E41413F
S1130260413E0000007F090909060000003E41519B
S1130270215E0000007F0919294600000026494933
S1130280493200000001017F01010000003F4040AD
S1130290403F0000001F2040201F0000003F403866
S11302A0403F000000631408146300000003047856
S11302B0040300000061514945430000007F4141AF
S11302C00000000000020408102000000041417FEB
S11302D0000000000004020102040000008080808D
S11302E0808000000001020400000000002054543B
S11302F054780000007F48444438000000384444E7
S11303002800000000384444487F0000003854545A
S11303105418000000087E09020000000018A4A47C
S1130320A47C0000007F08040478000000007D0025
S1130330000000000080847D00000000007F102881
S11303404400000000417F4000000000007C0418CD
S113035004780000007C08047C0000000038444459
S11303603800000000FC2424180000000018242495
S1130370FC00000000007C08040000000048545405
S11303802400000000047F4400000000003C4040C2
S11303907C000000001C2040201C0000003C403079
S11303A0403C00000044281028440000001CA0A089
S11303B07C000000004464544C44000000083641B2
S11303C00000000000007F0000000000004136082B
S11303D00000000000020101020100000002050506
S11303E00200000011241FBECFEFD1E2DEBFCDBF5B
S11303F000E00CBF12E0A0E0B2E0E8E2F7E000E0C9
S11304000BBF02C007900D92A230B107D9F722E0CA
S1130410A2E0B2E001C01D92A230B207E1F75FD0C2
S113042081C1EECD81B1816081B982B1816082B92F
S11304302FEF83ED90E3215080409040E1F700C01E
S1130440000082E18093B800E9EBF0E080818C7FCA
S1130450808385E08093BC00089594EA9093BC0067
S11304609091BC009923E4F79091B900987F98305B
S113047091F48093BB0084E88093BC008091BC001D
S11304808823E4F78091B900887F883131F0803285
S113049031F482E0089580E0089581E0089583E0D6
S11304A008958093BB0084E88093BC008091BC00D5
S11304B08823E4F78091B900887F883221F0803363
S11304C021F481E0089580E0089582E0089584E9AC
S11304D08093BC008091BC0084FDFCCF089588E724
S11304E08093000280E00ED09DDF4ED0DAD09ED003
S11304F083E722D08823E1F340E050E060E070E03D
S1130500A9D0F6CF7894811109C087E084B981E03D
S113051085B98AE58CBD81E090E008958F3F49F468
S113052088E084B981E085B988E48CBD81E090E0FD
S1130530089580E090E0089594B19770973061F445
S113054095B19E7F95B98EBD0DB407FEFDCF85B1E3
S1130550816085B98EB5089580E008951F920F9249
S11305600FB60F9211240F900FBE0F901F90189585
S1130570CF93C82F8091000270DF80E092DF8C2F30
S113058090DFA5DFCF9108958EEAF2DF85EDF0DFED
S113059080E8EEDF88EAECDF8FE3EADF83EDE8DF73
S11305A080E0E6DF80E4E4DF8DE8E2DF84E1E0DFA1
S11305B080E2DEDF80E0DCDF81EADADF88ECD8DFAE
S11305C08AEDD6DF82E1D4DF81E8D2DF8FECD0DFA1
S11305D089EDCEDF81EFCCDF8BEDCADF80E4C8DFAD
S11305E084EAC6DF86EAC4DF8FEAC2CF0895CF93D8
S11305F0C82F8091000231DF80E453DF8C2F51DF5C
S113060066DFCF910895CF93C62F8055B1DF8C2F2D
S1130610880F880F880F8870ABDF8C2F90E0969539
S113062087958F70805FA4DFCF910895CF93DF9378
S1130630D0E00BC060E08D2FE6DFC0E003C080E0B7
S1130640D6DFCF5FCC23DCF7DF5FD83098F3DF91C0
S1130650CF9108951F93CF93DF93182F862F642F84
S1130660D2DF80910002F9DE80E41BDFC0E0D0E03D
S113067010C0E12FF0E0B097EE0FFF1FEE0FFF1F49
S1130680EE0FFF1FEC51FF4FEC0FFD1F849109DFAC
S11306902196C830D1056CF31ADFDF91CF911F91F9
S11306A00895DF92EF92FF920F931F93CF93DF93FE
S11306B0BDDFE12CF12C6894DD24D5F827C060E07F
S11306C08E2DA1DF00E010E019C0F801ED0DF11D41
S11306D0B097EE0FFF1FEE0FFF1FEE0FFF1FEC5141
S11306E0FF4FEC0FFD1F849182DF219602C0C0E012
S11306F0D0E0C830D1054CF30F5F1F4F0031110516
S1130700B4F380E1D80E8FEFE81AF80A86E0E81611
S1130710F104ACF2DF91CF911F910F91FF90EF9014
S10B0720DF900895F894FFCF67
S1050728780053
S9030000FC
