S01700004763634170706C69636174696F6E312E737265635B
S1130000F1C100000EC200000CC200000AC20000D0
S113001008C2000006C2000004C2000002C20000C0
S113002000C20000FEC10000FCC10000FAC10000D3
S1130030F8C10000F6C10000F4C10000F2C10000E4
S1130040F0C10000EEC10000ECC10000EAC10000F4
S1130050E8C10000E6C10000E4C10000E2C1000004
S113006048C30000DEC10000DCC10000DAC10000AA
S1130070D8C10000D6C10000D4C10000D2C1000024
S1130080D0C10000CEC10000CCC10000CAC1000034
S1130090C8C10000C6C10000C4C10000C2C1000044
S11300A0C0C10000BEC10000BCC10000BAC1000054
S11300B0B8C10000B6C10000B4C10000B2C1000064
S11300C0B0C10000AEC10000ACC10000AAC1000074
S11300D0A8C10000A6C10000A4C10000A2C1000084
S11300E0A0C10000000000000000000000005F004C
S11300F000000000000007000700000000147F1447
S11301007F14000000242A7F2A1200000023130811
S113011064620000003649552250000000000503C7
S113012000000000001C2241000000000041221CCD
S11301300000000000082A1C2A0800000008083EED
S11301400808000000A06000000000000008080883
S11301500808000000606000000000000020100893
S113016004020000003E5149453E00000000427F69
S11301704000000000625149494600000022414904
S113018049360000001814127F100000002745456E
S113019045390000003C4A4949300000000171091A
S11301A00503000000364949493600000006494964
S11301B0291E000000003636000000000000AC6C70
S11301C00000000000081422410000000014141470
S11301D01414000000412214080000000002015120
S11301E00906000000324979413E0000007E0909F9
S11301F0097E0000007F494949360000003E414124
S113020041220000007F4141221C0000007F494937
S113021049410000007F090909010000003E4141F5
S113022051720000007F0808087F000000417F41F0
S113023000000000002040413F010000007F08143E
S113024022410000007F404040400000007F020C3B
S1130250027F0000007F0408107F0000003E41413F
S1130260413E0000007F090909060000003E41519B
S1130270215E0000007F0919294600000026494933
S1130280493200000001017F01010000003F4040AD
S1130290403F0000001F2040201F0000003F403866
S11302A0403F000000631408146300000003047856
S11302B0040300000061514945430000007F4141AF
S11302C00000000000020408102000000041417FEB
S11302D0000000000004020102040000008080808D
S11302E0808000000001020400000000002054543B
S11302F054780000007F48444438000000384444E7
S11303002800000000384444487F0000003854545A
S11303105418000000087E09020000000018A4A47C
S1130320A47C0000007F08040478000000007D0025
S1130330000000000080847D00000000007F102881
S11303404400000000417F4000000000007C0418CD
S113035004780000007C08047C0000000038444459
S11303603800000000FC2424180000000018242495
S1130370FC00000000007C08040000000048545405
S11303802400000000047F4400000000003C4040C2
S11303907C000000001C2040201C0000003C403079
S11303A0403C00000044281028440000001CA0A089
S11303B07C000000004464544C44000000083641B2
S11303C00000000000007F0000000000004136082B
S11303D00000000000020101020100000002050506
S11303E00200000011241FBECFEFD1E2DEBFCDBF5B
S11303F000E00CBF12E0A0E0B2E0E6ECF0E100E0C7
S11304000BBF02C007900D92A430B107D9F722E0C8
S1130410A4E0B2E001C01D92A830B207E1F75FD0BA
S113042050C6EECD81B1816081B982B1816082B95B
S11304302FEF83ED90E3215080409040E1F700C01E
S1130440000082E18093B800E9EBF0E080818C7FCA
S1130450808385E08093BC00089594EA9093BC0067
S11304609091BC009923E4F79091B900987F98305B
S113047091F48093BB0084E88093BC008091BC001D
S11304808823E4F78091B900887F883131F0803285
S113049031F482E0089580E0089581E0089583E0D6
S11304A008958093BB0084E88093BC008091BC00D5
S11304B08823E4F78091B900887F883221F0803363
S11304C021F481E0089580E0089582E0089584E9AC
S11304D08093BC008091BC0084FDFCCF0895CF9331
S11304E0DF9300D01F92CDB7DEB788E78093000278
S11304F080E0D3D097DF13D1A6D163D183E7E7D0CF
S11305008093070283E7E3D080930602A091070259
S11305103A2F3170E4E0F2E0908130FB90F9A1FBD6
S1130520552750F950FB91F9A2FB882480F880FAF2
S113053092F9A3FBAA24A0F8A0FA93F9A4FBCC2473
S1130540C0F8C0FA94F9A5FBEE24E0F8E0FA95F9B6
S1130550A6FB002700F900FB96F9A7FBAA27A0F940
S1130560A0FB97F9908380FB772470F865E072E034
S1130570FB01908170FA90F981FB442740F940FB1C
S113058091F982FB222720F920FB92F983FB88272B
S113059080F980FB93F99083652F70E0660F771FD5
S11305A0630F711D912C880C991C880C991C680D83
S11305B0791DB12CAA0CBB1CAA0CBB1CAA0CBB1C1D
S11305C06A0D7B1DD12CCC0CDD1CCC0CDD1CCC0CA1
S11305D0DD1CCC0CDD1C6C0D7D1DF12CEE0CFF1C08
S11305E0EE0CFF1CEE0CFF1CEE0CFF1CEE0CFF1CB3
S11305F06E0D7F1D10E0002416950795079416953F
S113060007950794102F002D600F711FB0E0B69569
S1130610BA2FAA27B795A7956A0F7B1FE72DF0E09D
S1130620FE2FEE276E0F7F1F50E0542F4427550FE7
S1130630640F751F30E0322F2227330F330F620F00
S1130640731F90E0982F8827990F990F990F680FBF
S1130650791F072E000C880B990B69D120E030E03C
S113066040E85EE3C8D130D17F936F9381E092E09C
S11306709F938F938E010F5F1F4F1F930F9346D24B
S113068040E050E060E070E0C801AFD00F900F9000
S11306900F900F900F900F9031CF7894811109C073
S11306A087E084B981E085B98AE58CBD81E090E07A
S11306B008958F3F49F488E084B981E085B988E4DE
S11306C08CBD81E090E0089580E090E0089594B1BD
S11306D09770973061F495B19E7F95B98EBD0DB436
S11306E007FEFDCF85B1816085B98EB5089580E0A0
S11306F008951F920F920FB60F9211240F900FBE00
S11307000F901F901895CF93C82F80910002A5DEFB
S113071080E0C7DE8C2FC5DEDADECF9108958EEA45
S1130720F2DF85EDF0DF80E8EEDF88EAECDF8FE3CF
S1130730EADF83EDE8DF80E0E6DF80E4E4DF8DE8F4
S1130740E2DF84E1E0DF80E2DEDF80E0DCDF81EA1B
S1130750DADF88ECD8DF8AEDD6DF82E1D4DF81E806
S1130760D2DF8FECD0DF89EDCEDF81EFCCDF8BEDF4
S1130770CADF80E4C8DF84EAC6DF86EAC4DF8FEA22
S1130780C2CF0895CF93C82F8091000266DE80E423
S113079088DE8C2F86DE9BDECF910895CF93C62F03
S11307A08055B1DF8C2F880F880F880F8870ABDFDE
S11307B08C2F90E0969587958F70805FA4DFCF9102
S11307C00895CF93DF93D0E00BC060E08D2FE6DF78
S11307D0C0E003C080E0D6DFCF5FCC23DCF7DF5F6F
S11307E0D83098F3DF91CF9108950F931F93CF934F
S11307F0DF93EC01862F062F642FD0DF1CC08A30D4
S113080029F460E081E0800FC9DF219610E010C078
S1130810E881F0E0B097EE0FFF1FEE0FFF1FEE0F21
S1130820FF1FEC51FF4FE10FF11D8491ABDF1F5F00
S1130830183070F3219688818111E1CFDF91CF9137
S11308401F910F910895DF92EF92FF920F931F93E0
S1130850CF93DF93B6DFE12CF12C6894DD24D5F837
S113086027C060E08E2D9ADF00E010E019C0F80187
S1130870ED0DF11DB097EE0FFF1FEE0FFF1FEE0FF2
S1130880FF1FEC51FF4FEC0FFD1F84917BDF21967E
S113089002C0C0E0D0E0C830D1054CF30F5F1F4F59
S11308A000311105B4F380E1D80E8FEFE81AF80A8D
S11308B086E0E816F104ACF2DF91CF911F910F911D
S11308C0FF90EF90DF90089504D06894B1118DC02B
S11308D0089570D088F09F5790F0B92F9927B75199
S11308E0A0F0D1F0660F771F881F991F1AF0BA95F0
S11308F0C9F712C0B13081F077D0B1E0089574C067
S1130900672F782F8827B85F39F0B93FCCF38695E5
S113091077956795B395D9F73EF490958095709542
S113092061957F4F8F4F9F4F0895E89409C097FBBF
S11309303EF490958095709561957F4F8F4F9F4FB2
S11309409923A9F0F92F96E9BB279395F6958795F6
S113095077956795B795F111F8CFFAF4BB0F11F4B9
S113096060FF1BC06F5F7F4F8F4F9F4F16C0882360
S113097011F096E911C0772321F09EE8872F762F96
S113098005C0662371F096E8862F70E060E02AF0D7
S11309909A95660F771F881FDAF7880F96958795C3
S11309A097F9089557FD9058440F551F59F05F3F2C
S11309B071F04795880F97FB991F61F09F3F79F07D
S11309C087950895121613061406551FF2CF4695FF
S11309D0F1DF08C0161617061806991FF1CF869581
S11309E07105610508940895E894BB276627772765
S11309F0CB0197F908950BD078C069D028F06ED058
S1130A0018F0952309F05AC05FC01124EECFCADF55
S1130A10A0F3959FD1F3950F50E0551F629FF0010D
S1130A20729FBB27F00DB11D639FAA27F00DB11D66
S1130A30AA1F649F6627B00DA11D661F829F2227EF
S1130A40B00DA11D621F739FB00DA11D621F839F76
S1130A50A00D611D221F749F3327A00D611D231F4C
S1130A60849F600D211D822F762F6A2F11249F579A
S1130A7050408AF0E1F088234AF0EE0FFF1FBB1FBD
S1130A80661F771F881F91505040A9F79E3F51055C
S1130A9070F014C0AACF5F3FECF3983EDCF3869568
S1130AA077956795B795F795E7959F5FC1F7FE2B07
S1130AB0880F911D9695879597F9089597F99F67E3
S1130AC080E870E060E008959FEF80EC08950024D2
S1130AD00A941616170618060906089500240A949F
S1130AE012161306140605060895092E0394000C25
S1130AF011F4882352F0BB0F40F4BF2B11F460FFB4
S1130B0004C06F5F7F4F8F4F9F4F08950F931F93C4
S1130B10CF93DF93CDB7DEB72E970FB6F894DEBF31
S1130B200FBECDBF0E891F8986E08C831A8309838B
S1130B308FEF9FE79E838D83AE01465E5F4F688D86
S1130B40798DCE01019610D0EF81F885E00FF11F69
S1130B5010822E960FB6F894DEBF0FBECDBFDF9184
S1130B60CF911F910F9108952F923F924F925F92D0
S1130B706F927F928F929F92AF92BF92CF92DF92A9
S1130B80EF92FF920F931F93CF93DF93CDB7DEB70E
S1130B902B970FB6F894DEBF0FBECDBF6C017B015F
S1130BA08A01FC0117821682838181FFBFC1CE01B5
S1130BB001963C01F6019381F70193FD859193FF22
S1130BC081917F01882309F4ADC1853239F493FD05
S1130BD0859193FF81917F01853221F4B60190E0E4
S1130BE0D6D1E8CF912C212C312CFFE1F315D8F08C
S1130BF08B3279F038F4803279F08332A1F4232DEA
S1130C0020611DC08D3261F0803369F4232D216091
S1130C1016C0832D8260382EE32DE4603E2E2AC058
S1130C20F32DF8601DC037FC2DC020ED280F2A30AD
S1130C3040F08E32B9F436FC75C1232D2064322E77
S1130C4019C036FE06C08AE0989E200D1124922E0B
S1130C5011C0EAE02E9E200D1124222EF32DF06205
S1130C603F2E08C08C3621F4832D8068382E02C0B4
S1130C70883641F4F70193FD859193FF81917F01BB
S1130C808111B3CF982F9F7D9554933028F40C5F36
S1130C901F4F9FE399830DC0833631F0833771F082
S1130CA0833509F055C020C0F801808189830E5F27
S1130CB01F4F88248394912C530112C02801F2E021
S1130CC04F0E511CF801A080B18036FE03C0692D7F
S1130CD070E002C06FEF7FEFC5014ED14C0182017D
S1130CE0F32DFF773F2E15C0280122E0420E511C40
S1130CF0F801A080B18036FE03C0692D70E002C007
S1130D006FEF7FEFC5012DD14C01F32DF0683F2E1D
S1130D10820133FC19C0822D90E088169906A0F454
S1130D20B60180E290E033D12A94F5CFF50137FC87
S1130D30859137FE81915F01B60190E028D12110A1
S1130D402A9421E0821A91088114910479F7E1C070
S1130D50843611F0893639F5F80137FE07C0608111
S1130D607181828193810C5F1F4F08C06081718102
S1130D70072E000C880B990B0E5F1F4FF32DFF7687
S1130D803F2E97FF09C090958095709561957F4F90
S1130D908F4F9F4FF0683F2E2AE030E0A30133D1FC
S1130DA0882E861844C0853731F4232D2F7EB22E29
S1130DB02AE030E025C0932D997FB92E8F36C1F0FB
S1130DC018F4883579F0AEC0803719F0883721F0EF
S1130DD0A9C0E92FE061BE2EB4FE0DC0FB2DF46066
S1130DE0BF2E09C034FE0AC0292F2660B22E06C0C9
S1130DF028E030E005C020E130E002C020E132E02C
S1130E00F801B7FE07C060817181828193810C5F14
S1130E101F4F06C06081718180E090E00E5F1F4F1C
S1130E20A301F1D0882E8618FB2DFF773F2E36FEC6
S1130E300DC0232D2E7FA22E891458F434FE0BC02E
S1130E4032FC09C0832D8E7EA82E05C0B82CA32C9D
S1130E5003C0B82C01C0B92CA4FE0FC0FE01E80DDC
S1130E60F11D8081803321F49A2D997EA92E09C029
S1130E70A2FE06C0B394B39404C08A2D867809F008
S1130E80B394A3FC10C0A0FE06C0B21480F4280CD6
S1130E90922C9B180DC0B21458F4B60180E290E075
S1130EA076D0B394F8CFB21418F42B1802C0982C4F
S1130EB0212CA4FE0FC0B60180E390E068D0A2FE0E
S1130EC016C0A1FC03C088E790E002C088E590E06A
S1130ED0B6010CC08A2D867851F0A1FE02C08BE2C7
S1130EE001C080E2A7FC8DE2B60190E050D08914E5
S1130EF030F4B60180E390E04AD09A94F8CF8A9413
S1130F00F301E80DF11D8081B60190E040D081101D
S1130F10F6CF222009F44ECEB60180E290E037D01D
S1130F202A94F7CFF6018681978102C08FEF9FEF55
S1130F302B960FB6F894DEBF0FBECDBFDF91CF91D5
S1130F401F910F91FF90EF90DF90CF90BF90AF90E3
S1130F509F908F907F906F905F904F903F902F90D5
S1130F600895FC010590615070400110D8F78095F8
S1130F7090958E0F9F1F0895FC0161507040019061
S1130F800110D8F7809590958E0F9F1F08950F93A9
S1130F901F93CF93DF93FB01238121FD03C08FEFC8
S1130FA09FEF2CC022FF16C04681578124813581D2
S1130FB04217530744F4A081B1819D012F5F3F4F35
S1130FC0318320838C93268137812F5F3F4F378372
S1130FD0268314C08B01EC01FB010084F185E02D14
S1130FE01995892BE1F6D80116968D919C91179746
S1130FF0019617969C938E931697CE01DF91CF910D
S11310001F910F910895FA01AA27283051F1203138
S113101081F1E8946F936E7F6E5F7F4F8F4F9F4F88
S1131020AF4FB1E03ED0B4E03CD0670F781F891FCA
S11310309A1FA11D680F791F8A1F911DA11D6A0F98
S1131040711D811D911DA11D20D009F468943F914B
S11310502AE0269F11243019305D3193DEF6CF014A
S11310600895462F4770405D4193B3E00FD0C9F710
S1131070F6CF462F4F70405D4A3318F0495D31FD7D
S11310804052419302D0A9F7EACFB4E0A6959795D0
S1131090879577956795BA95C9F7009761057105A6
S11310A008959B01AC010A2E0694579547953795F0
S11310B02795BA95C9F7620F731F841F951FA01D4A
S10910C00895F894FFCF2F
S10710C67825640021
S9030000FC
